{"contracts/attack/Attacker01.sol":{"Attacker01":{"abi":[{"inputs":[{"internalType":"bool","name":"isDefault","type":"bool"}],"name":"deploy","outputs":[{"internalType":"address","name":"contractAddr","type":"address"}],"stateMutability":"nonpayable","type":"function"},{"inputs":[],"name":"deployedContract","outputs":[{"internalType":"contract Attacker02","name":"","type":"address"}],"stateMutability":"view","type":"function"},{"inputs":[],"name":"kill","outputs":[],"stateMutability":"nonpayable","type":"function"}],"evm":{"bytecode":{"linkReferences":{},"object":"608060405234801561001057600080fd5b50611408806100206000396000f3fe608060405234801561001057600080fd5b50600436106100415760003560e01c806341c0e1b51461004657806375663eaa14610050578063ae242cdf14610080575b600080fd5b61004e61009e565b005b61006a600480360381019061006591906102b2565b610120565b6040516100779190610320565b60405180910390f35b610088610244565b604051610095919061039a565b60405180910390f35b60008054906101000a900473ffffffffffffffffffffffffffffffffffffffff1673ffffffffffffffffffffffffffffffffffffffff166384e9b7736040518163ffffffff1660e01b8152600401600060405180830381600087803b15801561010657600080fd5b505af115801561011a573d6000803e3d6000fd5b50505050565b6000806040518060200161013390610268565b6020820181038252601f19601f8201166040525090506000620abcde60001b9050808251602084016000f59250826000806101000a81548173ffffffffffffffffffffffffffffffffffffffff021916908373ffffffffffffffffffffffffffffffffffffffff16021790555060008054906101000a900473ffffffffffffffffffffffffffffffffffffffff1673ffffffffffffffffffffffffffffffffffffffff166375663eaa856040518263ffffffff1660e01b81526004016101f991906103c4565b6020604051808303816000875af1158015610218573d6000803e3d6000fd5b505050506040513d601f19601f8201168201806040525081019061023c919061040b565b505050919050565b60008054906101000a900473ffffffffffffffffffffffffffffffffffffffff1681565b610f9a8061043983390190565b600080fd5b60008115159050919050565b61028f8161027a565b811461029a57600080fd5b50565b6000813590506102ac81610286565b92915050565b6000602082840312156102c8576102c7610275565b5b60006102d68482850161029d565b91505092915050565b600073ffffffffffffffffffffffffffffffffffffffff82169050919050565b600061030a826102df565b9050919050565b61031a816102ff565b82525050565b60006020820190506103356000830184610311565b92915050565b6000819050919050565b600061036061035b610356846102df565b61033b565b6102df565b9050919050565b600061037282610345565b9050919050565b600061038482610367565b9050919050565b61039481610379565b82525050565b60006020820190506103af600083018461038b565b92915050565b6103be8161027a565b82525050565b60006020820190506103d960008301846103b5565b92915050565b6103e8816102ff565b81146103f357600080fd5b50565b600081519050610405816103df565b92915050565b60006020828403121561042157610420610275565b5b600061042f848285016103f6565b9150509291505056fe608060405234801561001057600080fd5b50610f7a806100206000396000f3fe608060405234801561001057600080fd5b506004361061004c5760003560e01c80631bb943fd1461005157806348eb76ee1461005b57806375663eaa1461007957806384e9b773146100a9575b600080fd5b6100596100b3565b005b6100636100cc565b6040516100709190610323565b60405180910390f35b610093600480360381019061008e919061037b565b6100f0565b6040516100a09190610323565b60405180910390f35b6100b16101a5565b005b3373ffffffffffffffffffffffffffffffffffffffff16ff5b60008054906101000a900473ffffffffffffffffffffffffffffffffffffffff1681565b6000811561012e576000604051610106906102c8565b604051809103906000f080158015610122573d6000803e3d6000fd5b50905080915050610160565b600060405161013c906102d5565b604051809103906000f080158015610158573d6000803e3d6000fd5b509050809150505b806000806101000a81548173ffffffffffffffffffffffffffffffffffffffff021916908373ffffffffffffffffffffffffffffffffffffffff160217905550919050565b6101ad6101b7565b6101b56100b3565b565b60008054906101000a900473ffffffffffffffffffffffffffffffffffffffff1673ffffffffffffffffffffffffffffffffffffffff166356e7b7aa306040516024016040516020818303038152906040527f1bb943fd000000000000000000000000000000000000000000000000000000007bffffffffffffffffffffffffffffffffffffffffffffffffffffffff19166020820180517bffffffffffffffffffffffffffffffffffffffffffffffffffffffff83818316178352505050506040518363ffffffff1660e01b8152600401610294929190610441565b600060405180830381600087803b1580156102ae57600080fd5b505af11580156102c2573d6000803e3d6000fd5b50505050565b61077f8061047283390190565b61035480610bf183390190565b600073ffffffffffffffffffffffffffffffffffffffff82169050919050565b600061030d826102e2565b9050919050565b61031d81610302565b82525050565b60006020820190506103386000830184610314565b92915050565b600080fd5b60008115159050919050565b61035881610343565b811461036357600080fd5b50565b6000813590506103758161034f565b92915050565b6000602082840312156103915761039061033e565b5b600061039f84828501610366565b91505092915050565b600081519050919050565b600082825260208201905092915050565b60005b838110156103e25780820151818401526020810190506103c7565b838111156103f1576000848401525b50505050565b6000601f19601f8301169050919050565b6000610413826103a8565b61041d81856103b3565b935061042d8185602086016103c4565b610436816103f7565b840191505092915050565b60006040820190506104566000830185610314565b81810360208301526104688184610408565b9050939250505056fe608060405234801561001057600080fd5b50336000806101000a81548173ffffffffffffffffffffffffffffffffffffffff021916908373ffffffffffffffffffffffffffffffffffffffff16021790555061071f806100606000396000f3fe60806040526004361061003f5760003560e01c806356e7b7aa146100445780638da5cb5b1461006d5780638f1db79b14610098578063f8a8fd6d146100c3575b600080fd5b34801561005057600080fd5b5061006b600480360381019061006691906104fa565b6100cd565b005b34801561007957600080fd5b5061008261019f565b60405161008f9190610565565b60405180910390f35b3480156100a457600080fd5b506100ad6101c3565b6040516100ba9190610608565b60405180910390f35b6100cb610251565b005b60008054906101000a900473ffffffffffffffffffffffffffffffffffffffff1673ffffffffffffffffffffffffffffffffffffffff163373ffffffffffffffffffffffffffffffffffffffff161461012557600080fd5b60008273ffffffffffffffffffffffffffffffffffffffff168260405161014c9190610671565b600060405180830381855af49150503d8060008114610187576040519150601f19603f3d011682016040523d82523d6000602084013e61018c565b606091505b505090508061019a57600080fd5b505050565b60008054906101000a900473ffffffffffffffffffffffffffffffffffffffff1681565b600180546101d0906106b7565b80601f01602080910402602001604051908101604052809291908181526020018280546101fc906106b7565b80156102495780601f1061021e57610100808354040283529160200191610249565b820191906000526020600020905b81548152906001019060200180831161022c57829003601f168201915b505050505081565b6040518060400160405280600781526020017f64656661756c74000000000000000000000000000000000000000000000000008152506001908051906020019061029c92919061029f565b50565b8280546102ab906106b7565b90600052602060002090601f0160209004810192826102cd5760008555610314565b82601f106102e657805160ff1916838001178555610314565b82800160010185558215610314579182015b828111156103135782518255916020019190600101906102f8565b5b5090506103219190610325565b5090565b5b8082111561033e576000816000905550600101610326565b5090565b6000604051905090565b600080fd5b600080fd5b600073ffffffffffffffffffffffffffffffffffffffff82169050919050565b600061038182610356565b9050919050565b61039181610376565b811461039c57600080fd5b50565b6000813590506103ae81610388565b92915050565b600080fd5b600080fd5b6000601f19601f8301169050919050565b7f4e487b7100000000000000000000000000000000000000000000000000000000600052604160045260246000fd5b610407826103be565b810181811067ffffffffffffffff82111715610426576104256103cf565b5b80604052505050565b6000610439610342565b905061044582826103fe565b919050565b600067ffffffffffffffff821115610465576104646103cf565b5b61046e826103be565b9050602081019050919050565b82818337600083830152505050565b600061049d6104988461044a565b61042f565b9050828152602081018484840111156104b9576104b86103b9565b5b6104c484828561047b565b509392505050565b600082601f8301126104e1576104e06103b4565b5b81356104f184826020860161048a565b91505092915050565b600080604083850312156105115761051061034c565b5b600061051f8582860161039f565b925050602083013567ffffffffffffffff8111156105405761053f610351565b5b61054c858286016104cc565b9150509250929050565b61055f81610376565b82525050565b600060208201905061057a6000830184610556565b92915050565b600081519050919050565b600082825260208201905092915050565b60005b838110156105ba57808201518184015260208101905061059f565b838111156105c9576000848401525b50505050565b60006105da82610580565b6105e4818561058b565b93506105f481856020860161059c565b6105fd816103be565b840191505092915050565b6000602082019050818103600083015261062281846105cf565b905092915050565b600081519050919050565b600081905092915050565b600061064b8261062a565b6106558185610635565b935061066581856020860161059c565b80840191505092915050565b600061067d8284610640565b915081905092915050565b7f4e487b7100000000000000000000000000000000000000000000000000000000600052602260045260246000fd5b600060028204905060018216806106cf57607f821691505b602082108114156106e3576106e2610688565b5b5091905056fea26469706673582212206a09fe8fb62c964a5d8d5f48783cce4659caacda67f57c84e25dc2f0b96b1a4f64736f6c634300080a0033608060405234801561001057600080fd5b50610334806100206000396000f3fe6080604052600436106100295760003560e01c80638f1db79b1461002e578063f8a8fd6d14610059575b600080fd5b34801561003a57600080fd5b50610043610063565b604051610050919061027b565b60405180910390f35b6100616100f1565b005b60008054610070906102cc565b80601f016020809104026020016040519081016040528092919081815260200182805461009c906102cc565b80156100e95780601f106100be576101008083540402835291602001916100e9565b820191906000526020600020905b8154815290600101906020018083116100cc57829003601f168201915b505050505081565b6040518060400160405280600981526020017f6d616c6963696f757300000000000000000000000000000000000000000000008152506000908051906020019061013c92919061013f565b50565b82805461014b906102cc565b90600052602060002090601f01602090048101928261016d57600085556101b4565b82601f1061018657805160ff19168380011785556101b4565b828001600101855582156101b4579182015b828111156101b3578251825591602001919060010190610198565b5b5090506101c191906101c5565b5090565b5b808211156101de5760008160009055506001016101c6565b5090565b600081519050919050565b600082825260208201905092915050565b60005b8381101561021c578082015181840152602081019050610201565b8381111561022b576000848401525b50505050565b6000601f19601f8301169050919050565b600061024d826101e2565b61025781856101ed565b93506102678185602086016101fe565b61027081610231565b840191505092915050565b600060208201905081810360008301526102958184610242565b905092915050565b7f4e487b7100000000000000000000000000000000000000000000000000000000600052602260045260246000fd5b600060028204905060018216806102e457607f821691505b602082108114156102f8576102f761029d565b5b5091905056fea26469706673582212204ff6513dcfc11d264be8cffd5145812fd95e98ff110ff6949121a3971a7af74a64736f6c634300080a0033a2646970667358221220c143308cb40c9bb73da7e26a8c3e55a32ef16c93ae1cee056099cd5c891caac364736f6c634300080a0033a2646970667358221220c3b9e16e569fdd980dd5bc5da0e0477b4bc17f84c6da14a347b0afeadb2147d464736f6c634300080a0033","opcodes":"PUSH1 0x80 PUSH1 0x40 MSTORE CALLVALUE DUP1 ISZERO PUSH2 0x10 JUMPI PUSH1 0x0 DUP1 REVERT JUMPDEST POP PUSH2 0x1408 DUP1 PUSH2 0x20 PUSH1 0x0 CODECOPY PUSH1 0x0 RETURN INVALID PUSH1 0x80 PUSH1 0x40 MSTORE CALLVALUE DUP1 ISZERO PUSH2 0x10 JUMPI PUSH1 0x0 DUP1 REVERT JUMPDEST POP PUSH1 0x4 CALLDATASIZE LT PUSH2 0x41 JUMPI PUSH1 0x0 CALLDATALOAD PUSH1 0xE0 SHR DUP1 PUSH4 0x41C0E1B5 EQ PUSH2 0x46 JUMPI DUP1 PUSH4 0x75663EAA EQ PUSH2 0x50 JUMPI DUP1 PUSH4 0xAE242CDF EQ PUSH2 0x80 JUMPI JUMPDEST PUSH1 0x0 DUP1 REVERT JUMPDEST PUSH2 0x4E PUSH2 0x9E JUMP JUMPDEST STOP JUMPDEST PUSH2 0x6A PUSH1 0x4 DUP1 CALLDATASIZE SUB DUP2 ADD SWAP1 PUSH2 0x65 SWAP2 SWAP1 PUSH2 0x2B2 JUMP JUMPDEST PUSH2 0x120 JUMP JUMPDEST PUSH1 0x40 MLOAD PUSH2 0x77 SWAP2 SWAP1 PUSH2 0x320 JUMP JUMPDEST PUSH1 0x40 MLOAD DUP1 SWAP2 SUB SWAP1 RETURN JUMPDEST PUSH2 0x88 PUSH2 0x244 JUMP JUMPDEST PUSH1 0x40 MLOAD PUSH2 0x95 SWAP2 SWAP1 PUSH2 0x39A JUMP JUMPDEST PUSH1 0x40 MLOAD DUP1 SWAP2 SUB SWAP1 RETURN JUMPDEST PUSH1 0x0 DUP1 SLOAD SWAP1 PUSH2 0x100 EXP SWAP1 DIV PUSH20 0xFFFFFFFFFFFFFFFFFFFFFFFFFFFFFFFFFFFFFFFF AND PUSH20 0xFFFFFFFFFFFFFFFFFFFFFFFFFFFFFFFFFFFFFFFF AND PUSH4 0x84E9B773 PUSH1 0x40 MLOAD DUP2 PUSH4 0xFFFFFFFF AND PUSH1 0xE0 SHL DUP2 MSTORE PUSH1 0x4 ADD PUSH1 0x0 PUSH1 0x40 MLOAD DUP1 DUP4 SUB DUP2 PUSH1 0x0 DUP8 DUP1 EXTCODESIZE ISZERO DUP1 ISZERO PUSH2 0x106 JUMPI PUSH1 0x0 DUP1 REVERT JUMPDEST POP GAS CALL ISZERO DUP1 ISZERO PUSH2 0x11A JUMPI RETURNDATASIZE PUSH1 0x0 DUP1 RETURNDATACOPY RETURNDATASIZE PUSH1 0x0 REVERT JUMPDEST POP POP POP POP JUMP JUMPDEST PUSH1 0x0 DUP1 PUSH1 0x40 MLOAD DUP1 PUSH1 0x20 ADD PUSH2 0x133 SWAP1 PUSH2 0x268 JUMP JUMPDEST PUSH1 0x20 DUP3 ADD DUP2 SUB DUP3 MSTORE PUSH1 0x1F NOT PUSH1 0x1F DUP3 ADD AND PUSH1 0x40 MSTORE POP SWAP1 POP PUSH1 0x0 PUSH3 0xABCDE PUSH1 0x0 SHL SWAP1 POP DUP1 DUP3 MLOAD PUSH1 0x20 DUP5 ADD PUSH1 0x0 CREATE2 SWAP3 POP DUP3 PUSH1 0x0 DUP1 PUSH2 0x100 EXP DUP2 SLOAD DUP2 PUSH20 0xFFFFFFFFFFFFFFFFFFFFFFFFFFFFFFFFFFFFFFFF MUL NOT AND SWAP1 DUP4 PUSH20 0xFFFFFFFFFFFFFFFFFFFFFFFFFFFFFFFFFFFFFFFF AND MUL OR SWAP1 SSTORE POP PUSH1 0x0 DUP1 SLOAD SWAP1 PUSH2 0x100 EXP SWAP1 DIV PUSH20 0xFFFFFFFFFFFFFFFFFFFFFFFFFFFFFFFFFFFFFFFF AND PUSH20 0xFFFFFFFFFFFFFFFFFFFFFFFFFFFFFFFFFFFFFFFF AND PUSH4 0x75663EAA DUP6 PUSH1 0x40 MLOAD DUP3 PUSH4 0xFFFFFFFF AND PUSH1 0xE0 SHL DUP2 MSTORE PUSH1 0x4 ADD PUSH2 0x1F9 SWAP2 SWAP1 PUSH2 0x3C4 JUMP JUMPDEST PUSH1 0x20 PUSH1 0x40 MLOAD DUP1 DUP4 SUB DUP2 PUSH1 0x0 DUP8 GAS CALL ISZERO DUP1 ISZERO PUSH2 0x218 JUMPI RETURNDATASIZE PUSH1 0x0 DUP1 RETURNDATACOPY RETURNDATASIZE PUSH1 0x0 REVERT JUMPDEST POP POP POP POP PUSH1 0x40 MLOAD RETURNDATASIZE PUSH1 0x1F NOT PUSH1 0x1F DUP3 ADD AND DUP3 ADD DUP1 PUSH1 0x40 MSTORE POP DUP2 ADD SWAP1 PUSH2 0x23C SWAP2 SWAP1 PUSH2 0x40B JUMP JUMPDEST POP POP POP SWAP2 SWAP1 POP JUMP JUMPDEST PUSH1 0x0 DUP1 SLOAD SWAP1 PUSH2 0x100 EXP SWAP1 DIV PUSH20 0xFFFFFFFFFFFFFFFFFFFFFFFFFFFFFFFFFFFFFFFF AND DUP2 JUMP JUMPDEST PUSH2 0xF9A DUP1 PUSH2 0x439 DUP4 CODECOPY ADD SWAP1 JUMP JUMPDEST PUSH1 0x0 DUP1 REVERT JUMPDEST PUSH1 0x0 DUP2 ISZERO ISZERO SWAP1 POP SWAP2 SWAP1 POP JUMP JUMPDEST PUSH2 0x28F DUP2 PUSH2 0x27A JUMP JUMPDEST DUP2 EQ PUSH2 0x29A JUMPI PUSH1 0x0 DUP1 REVERT JUMPDEST POP JUMP JUMPDEST PUSH1 0x0 DUP2 CALLDATALOAD SWAP1 POP PUSH2 0x2AC DUP2 PUSH2 0x286 JUMP JUMPDEST SWAP3 SWAP2 POP POP JUMP JUMPDEST PUSH1 0x0 PUSH1 0x20 DUP3 DUP5 SUB SLT ISZERO PUSH2 0x2C8 JUMPI PUSH2 0x2C7 PUSH2 0x275 JUMP JUMPDEST JUMPDEST PUSH1 0x0 PUSH2 0x2D6 DUP5 DUP3 DUP6 ADD PUSH2 0x29D JUMP JUMPDEST SWAP2 POP POP SWAP3 SWAP2 POP POP JUMP JUMPDEST PUSH1 0x0 PUSH20 0xFFFFFFFFFFFFFFFFFFFFFFFFFFFFFFFFFFFFFFFF DUP3 AND SWAP1 POP SWAP2 SWAP1 POP JUMP JUMPDEST PUSH1 0x0 PUSH2 0x30A DUP3 PUSH2 0x2DF JUMP JUMPDEST SWAP1 POP SWAP2 SWAP1 POP JUMP JUMPDEST PUSH2 0x31A DUP2 PUSH2 0x2FF JUMP JUMPDEST DUP3 MSTORE POP POP JUMP JUMPDEST PUSH1 0x0 PUSH1 0x20 DUP3 ADD SWAP1 POP PUSH2 0x335 PUSH1 0x0 DUP4 ADD DUP5 PUSH2 0x311 JUMP JUMPDEST SWAP3 SWAP2 POP POP JUMP JUMPDEST PUSH1 0x0 DUP2 SWAP1 POP SWAP2 SWAP1 POP JUMP JUMPDEST PUSH1 0x0 PUSH2 0x360 PUSH2 0x35B PUSH2 0x356 DUP5 PUSH2 0x2DF JUMP JUMPDEST PUSH2 0x33B JUMP JUMPDEST PUSH2 0x2DF JUMP JUMPDEST SWAP1 POP SWAP2 SWAP1 POP JUMP JUMPDEST PUSH1 0x0 PUSH2 0x372 DUP3 PUSH2 0x345 JUMP JUMPDEST SWAP1 POP SWAP2 SWAP1 POP JUMP JUMPDEST PUSH1 0x0 PUSH2 0x384 DUP3 PUSH2 0x367 JUMP JUMPDEST SWAP1 POP SWAP2 SWAP1 POP JUMP JUMPDEST PUSH2 0x394 DUP2 PUSH2 0x379 JUMP JUMPDEST DUP3 MSTORE POP POP JUMP JUMPDEST PUSH1 0x0 PUSH1 0x20 DUP3 ADD SWAP1 POP PUSH2 0x3AF PUSH1 0x0 DUP4 ADD DUP5 PUSH2 0x38B JUMP JUMPDEST SWAP3 SWAP2 POP POP JUMP JUMPDEST PUSH2 0x3BE DUP2 PUSH2 0x27A JUMP JUMPDEST DUP3 MSTORE POP POP JUMP JUMPDEST PUSH1 0x0 PUSH1 0x20 DUP3 ADD SWAP1 POP PUSH2 0x3D9 PUSH1 0x0 DUP4 ADD DUP5 PUSH2 0x3B5 JUMP JUMPDEST SWAP3 SWAP2 POP POP JUMP JUMPDEST PUSH2 0x3E8 DUP2 PUSH2 0x2FF JUMP JUMPDEST DUP2 EQ PUSH2 0x3F3 JUMPI PUSH1 0x0 DUP1 REVERT JUMPDEST POP JUMP JUMPDEST PUSH1 0x0 DUP2 MLOAD SWAP1 POP PUSH2 0x405 DUP2 PUSH2 0x3DF JUMP JUMPDEST SWAP3 SWAP2 POP POP JUMP JUMPDEST PUSH1 0x0 PUSH1 0x20 DUP3 DUP5 SUB SLT ISZERO PUSH2 0x421 JUMPI PUSH2 0x420 PUSH2 0x275 JUMP JUMPDEST JUMPDEST PUSH1 0x0 PUSH2 0x42F DUP5 DUP3 DUP6 ADD PUSH2 0x3F6 JUMP JUMPDEST SWAP2 POP POP SWAP3 SWAP2 POP POP JUMP INVALID PUSH1 0x80 PUSH1 0x40 MSTORE CALLVALUE DUP1 ISZERO PUSH2 0x10 JUMPI PUSH1 0x0 DUP1 REVERT JUMPDEST POP PUSH2 0xF7A DUP1 PUSH2 0x20 PUSH1 0x0 CODECOPY PUSH1 0x0 RETURN INVALID PUSH1 0x80 PUSH1 0x40 MSTORE CALLVALUE DUP1 ISZERO PUSH2 0x10 JUMPI PUSH1 0x0 DUP1 REVERT JUMPDEST POP PUSH1 0x4 CALLDATASIZE LT PUSH2 0x4C JUMPI PUSH1 0x0 CALLDATALOAD PUSH1 0xE0 SHR DUP1 PUSH4 0x1BB943FD EQ PUSH2 0x51 JUMPI DUP1 PUSH4 0x48EB76EE EQ PUSH2 0x5B JUMPI DUP1 PUSH4 0x75663EAA EQ PUSH2 0x79 JUMPI DUP1 PUSH4 0x84E9B773 EQ PUSH2 0xA9 JUMPI JUMPDEST PUSH1 0x0 DUP1 REVERT JUMPDEST PUSH2 0x59 PUSH2 0xB3 JUMP JUMPDEST STOP JUMPDEST PUSH2 0x63 PUSH2 0xCC JUMP JUMPDEST PUSH1 0x40 MLOAD PUSH2 0x70 SWAP2 SWAP1 PUSH2 0x323 JUMP JUMPDEST PUSH1 0x40 MLOAD DUP1 SWAP2 SUB SWAP1 RETURN JUMPDEST PUSH2 0x93 PUSH1 0x4 DUP1 CALLDATASIZE SUB DUP2 ADD SWAP1 PUSH2 0x8E SWAP2 SWAP1 PUSH2 0x37B JUMP JUMPDEST PUSH2 0xF0 JUMP JUMPDEST PUSH1 0x40 MLOAD PUSH2 0xA0 SWAP2 SWAP1 PUSH2 0x323 JUMP JUMPDEST PUSH1 0x40 MLOAD DUP1 SWAP2 SUB SWAP1 RETURN JUMPDEST PUSH2 0xB1 PUSH2 0x1A5 JUMP JUMPDEST STOP JUMPDEST CALLER PUSH20 0xFFFFFFFFFFFFFFFFFFFFFFFFFFFFFFFFFFFFFFFF AND SELFDESTRUCT JUMPDEST PUSH1 0x0 DUP1 SLOAD SWAP1 PUSH2 0x100 EXP SWAP1 DIV PUSH20 0xFFFFFFFFFFFFFFFFFFFFFFFFFFFFFFFFFFFFFFFF AND DUP2 JUMP JUMPDEST PUSH1 0x0 DUP2 ISZERO PUSH2 0x12E JUMPI PUSH1 0x0 PUSH1 0x40 MLOAD PUSH2 0x106 SWAP1 PUSH2 0x2C8 JUMP JUMPDEST PUSH1 0x40 MLOAD DUP1 SWAP2 SUB SWAP1 PUSH1 0x0 CREATE DUP1 ISZERO DUP1 ISZERO PUSH2 0x122 JUMPI RETURNDATASIZE PUSH1 0x0 DUP1 RETURNDATACOPY RETURNDATASIZE PUSH1 0x0 REVERT JUMPDEST POP SWAP1 POP DUP1 SWAP2 POP POP PUSH2 0x160 JUMP JUMPDEST PUSH1 0x0 PUSH1 0x40 MLOAD PUSH2 0x13C SWAP1 PUSH2 0x2D5 JUMP JUMPDEST PUSH1 0x40 MLOAD DUP1 SWAP2 SUB SWAP1 PUSH1 0x0 CREATE DUP1 ISZERO DUP1 ISZERO PUSH2 0x158 JUMPI RETURNDATASIZE PUSH1 0x0 DUP1 RETURNDATACOPY RETURNDATASIZE PUSH1 0x0 REVERT JUMPDEST POP SWAP1 POP DUP1 SWAP2 POP POP JUMPDEST DUP1 PUSH1 0x0 DUP1 PUSH2 0x100 EXP DUP2 SLOAD DUP2 PUSH20 0xFFFFFFFFFFFFFFFFFFFFFFFFFFFFFFFFFFFFFFFF MUL NOT AND SWAP1 DUP4 PUSH20 0xFFFFFFFFFFFFFFFFFFFFFFFFFFFFFFFFFFFFFFFF AND MUL OR SWAP1 SSTORE POP SWAP2 SWAP1 POP JUMP JUMPDEST PUSH2 0x1AD PUSH2 0x1B7 JUMP JUMPDEST PUSH2 0x1B5 PUSH2 0xB3 JUMP JUMPDEST JUMP JUMPDEST PUSH1 0x0 DUP1 SLOAD SWAP1 PUSH2 0x100 EXP SWAP1 DIV PUSH20 0xFFFFFFFFFFFFFFFFFFFFFFFFFFFFFFFFFFFFFFFF AND PUSH20 0xFFFFFFFFFFFFFFFFFFFFFFFFFFFFFFFFFFFFFFFF AND PUSH4 0x56E7B7AA ADDRESS PUSH1 0x40 MLOAD PUSH1 0x24 ADD PUSH1 0x40 MLOAD PUSH1 0x20 DUP2 DUP4 SUB SUB DUP2 MSTORE SWAP1 PUSH1 0x40 MSTORE PUSH32 0x1BB943FD00000000000000000000000000000000000000000000000000000000 PUSH28 0xFFFFFFFFFFFFFFFFFFFFFFFFFFFFFFFFFFFFFFFFFFFFFFFFFFFFFFFF NOT AND PUSH1 0x20 DUP3 ADD DUP1 MLOAD PUSH28 0xFFFFFFFFFFFFFFFFFFFFFFFFFFFFFFFFFFFFFFFFFFFFFFFFFFFFFFFF DUP4 DUP2 DUP4 AND OR DUP4 MSTORE POP POP POP POP PUSH1 0x40 MLOAD DUP4 PUSH4 0xFFFFFFFF AND PUSH1 0xE0 SHL DUP2 MSTORE PUSH1 0x4 ADD PUSH2 0x294 SWAP3 SWAP2 SWAP1 PUSH2 0x441 JUMP JUMPDEST PUSH1 0x0 PUSH1 0x40 MLOAD DUP1 DUP4 SUB DUP2 PUSH1 0x0 DUP8 DUP1 EXTCODESIZE ISZERO DUP1 ISZERO PUSH2 0x2AE JUMPI PUSH1 0x0 DUP1 REVERT JUMPDEST POP GAS CALL ISZERO DUP1 ISZERO PUSH2 0x2C2 JUMPI RETURNDATASIZE PUSH1 0x0 DUP1 RETURNDATACOPY RETURNDATASIZE PUSH1 0x0 REVERT JUMPDEST POP POP POP POP JUMP JUMPDEST PUSH2 0x77F DUP1 PUSH2 0x472 DUP4 CODECOPY ADD SWAP1 JUMP JUMPDEST PUSH2 0x354 DUP1 PUSH2 0xBF1 DUP4 CODECOPY ADD SWAP1 JUMP JUMPDEST PUSH1 0x0 PUSH20 0xFFFFFFFFFFFFFFFFFFFFFFFFFFFFFFFFFFFFFFFF DUP3 AND SWAP1 POP SWAP2 SWAP1 POP JUMP JUMPDEST PUSH1 0x0 PUSH2 0x30D DUP3 PUSH2 0x2E2 JUMP JUMPDEST SWAP1 POP SWAP2 SWAP1 POP JUMP JUMPDEST PUSH2 0x31D DUP2 PUSH2 0x302 JUMP JUMPDEST DUP3 MSTORE POP POP JUMP JUMPDEST PUSH1 0x0 PUSH1 0x20 DUP3 ADD SWAP1 POP PUSH2 0x338 PUSH1 0x0 DUP4 ADD DUP5 PUSH2 0x314 JUMP JUMPDEST SWAP3 SWAP2 POP POP JUMP JUMPDEST PUSH1 0x0 DUP1 REVERT JUMPDEST PUSH1 0x0 DUP2 ISZERO ISZERO SWAP1 POP SWAP2 SWAP1 POP JUMP JUMPDEST PUSH2 0x358 DUP2 PUSH2 0x343 JUMP JUMPDEST DUP2 EQ PUSH2 0x363 JUMPI PUSH1 0x0 DUP1 REVERT JUMPDEST POP JUMP JUMPDEST PUSH1 0x0 DUP2 CALLDATALOAD SWAP1 POP PUSH2 0x375 DUP2 PUSH2 0x34F JUMP JUMPDEST SWAP3 SWAP2 POP POP JUMP JUMPDEST PUSH1 0x0 PUSH1 0x20 DUP3 DUP5 SUB SLT ISZERO PUSH2 0x391 JUMPI PUSH2 0x390 PUSH2 0x33E JUMP JUMPDEST JUMPDEST PUSH1 0x0 PUSH2 0x39F DUP5 DUP3 DUP6 ADD PUSH2 0x366 JUMP JUMPDEST SWAP2 POP POP SWAP3 SWAP2 POP POP JUMP JUMPDEST PUSH1 0x0 DUP2 MLOAD SWAP1 POP SWAP2 SWAP1 POP JUMP JUMPDEST PUSH1 0x0 DUP3 DUP3 MSTORE PUSH1 0x20 DUP3 ADD SWAP1 POP SWAP3 SWAP2 POP POP JUMP JUMPDEST PUSH1 0x0 JUMPDEST DUP4 DUP2 LT ISZERO PUSH2 0x3E2 JUMPI DUP1 DUP3 ADD MLOAD DUP2 DUP5 ADD MSTORE PUSH1 0x20 DUP2 ADD SWAP1 POP PUSH2 0x3C7 JUMP JUMPDEST DUP4 DUP2 GT ISZERO PUSH2 0x3F1 JUMPI PUSH1 0x0 DUP5 DUP5 ADD MSTORE JUMPDEST POP POP POP POP JUMP JUMPDEST PUSH1 0x0 PUSH1 0x1F NOT PUSH1 0x1F DUP4 ADD AND SWAP1 POP SWAP2 SWAP1 POP JUMP JUMPDEST PUSH1 0x0 PUSH2 0x413 DUP3 PUSH2 0x3A8 JUMP JUMPDEST PUSH2 0x41D DUP2 DUP6 PUSH2 0x3B3 JUMP JUMPDEST SWAP4 POP PUSH2 0x42D DUP2 DUP6 PUSH1 0x20 DUP7 ADD PUSH2 0x3C4 JUMP JUMPDEST PUSH2 0x436 DUP2 PUSH2 0x3F7 JUMP JUMPDEST DUP5 ADD SWAP2 POP POP SWAP3 SWAP2 POP POP JUMP JUMPDEST PUSH1 0x0 PUSH1 0x40 DUP3 ADD SWAP1 POP PUSH2 0x456 PUSH1 0x0 DUP4 ADD DUP6 PUSH2 0x314 JUMP JUMPDEST DUP2 DUP2 SUB PUSH1 0x20 DUP4 ADD MSTORE PUSH2 0x468 DUP2 DUP5 PUSH2 0x408 JUMP JUMPDEST SWAP1 POP SWAP4 SWAP3 POP POP POP JUMP INVALID PUSH1 0x80 PUSH1 0x40 MSTORE CALLVALUE DUP1 ISZERO PUSH2 0x10 JUMPI PUSH1 0x0 DUP1 REVERT JUMPDEST POP CALLER PUSH1 0x0 DUP1 PUSH2 0x100 EXP DUP2 SLOAD DUP2 PUSH20 0xFFFFFFFFFFFFFFFFFFFFFFFFFFFFFFFFFFFFFFFF MUL NOT AND SWAP1 DUP4 PUSH20 0xFFFFFFFFFFFFFFFFFFFFFFFFFFFFFFFFFFFFFFFF AND MUL OR SWAP1 SSTORE POP PUSH2 0x71F DUP1 PUSH2 0x60 PUSH1 0x0 CODECOPY PUSH1 0x0 RETURN INVALID PUSH1 0x80 PUSH1 0x40 MSTORE PUSH1 0x4 CALLDATASIZE LT PUSH2 0x3F JUMPI PUSH1 0x0 CALLDATALOAD PUSH1 0xE0 SHR DUP1 PUSH4 0x56E7B7AA EQ PUSH2 0x44 JUMPI DUP1 PUSH4 0x8DA5CB5B EQ PUSH2 0x6D JUMPI DUP1 PUSH4 0x8F1DB79B EQ PUSH2 0x98 JUMPI DUP1 PUSH4 0xF8A8FD6D EQ PUSH2 0xC3 JUMPI JUMPDEST PUSH1 0x0 DUP1 REVERT JUMPDEST CALLVALUE DUP1 ISZERO PUSH2 0x50 JUMPI PUSH1 0x0 DUP1 REVERT JUMPDEST POP PUSH2 0x6B PUSH1 0x4 DUP1 CALLDATASIZE SUB DUP2 ADD SWAP1 PUSH2 0x66 SWAP2 SWAP1 PUSH2 0x4FA JUMP JUMPDEST PUSH2 0xCD JUMP JUMPDEST STOP JUMPDEST CALLVALUE DUP1 ISZERO PUSH2 0x79 JUMPI PUSH1 0x0 DUP1 REVERT JUMPDEST POP PUSH2 0x82 PUSH2 0x19F JUMP JUMPDEST PUSH1 0x40 MLOAD PUSH2 0x8F SWAP2 SWAP1 PUSH2 0x565 JUMP JUMPDEST PUSH1 0x40 MLOAD DUP1 SWAP2 SUB SWAP1 RETURN JUMPDEST CALLVALUE DUP1 ISZERO PUSH2 0xA4 JUMPI PUSH1 0x0 DUP1 REVERT JUMPDEST POP PUSH2 0xAD PUSH2 0x1C3 JUMP JUMPDEST PUSH1 0x40 MLOAD PUSH2 0xBA SWAP2 SWAP1 PUSH2 0x608 JUMP JUMPDEST PUSH1 0x40 MLOAD DUP1 SWAP2 SUB SWAP1 RETURN JUMPDEST PUSH2 0xCB PUSH2 0x251 JUMP JUMPDEST STOP JUMPDEST PUSH1 0x0 DUP1 SLOAD SWAP1 PUSH2 0x100 EXP SWAP1 DIV PUSH20 0xFFFFFFFFFFFFFFFFFFFFFFFFFFFFFFFFFFFFFFFF AND PUSH20 0xFFFFFFFFFFFFFFFFFFFFFFFFFFFFFFFFFFFFFFFF AND CALLER PUSH20 0xFFFFFFFFFFFFFFFFFFFFFFFFFFFFFFFFFFFFFFFF AND EQ PUSH2 0x125 JUMPI PUSH1 0x0 DUP1 REVERT JUMPDEST PUSH1 0x0 DUP3 PUSH20 0xFFFFFFFFFFFFFFFFFFFFFFFFFFFFFFFFFFFFFFFF AND DUP3 PUSH1 0x40 MLOAD PUSH2 0x14C SWAP2 SWAP1 PUSH2 0x671 JUMP JUMPDEST PUSH1 0x0 PUSH1 0x40 MLOAD DUP1 DUP4 SUB DUP2 DUP6 GAS DELEGATECALL SWAP2 POP POP RETURNDATASIZE DUP1 PUSH1 0x0 DUP2 EQ PUSH2 0x187 JUMPI PUSH1 0x40 MLOAD SWAP2 POP PUSH1 0x1F NOT PUSH1 0x3F RETURNDATASIZE ADD AND DUP3 ADD PUSH1 0x40 MSTORE RETURNDATASIZE DUP3 MSTORE RETURNDATASIZE PUSH1 0x0 PUSH1 0x20 DUP5 ADD RETURNDATACOPY PUSH2 0x18C JUMP JUMPDEST PUSH1 0x60 SWAP2 POP JUMPDEST POP POP SWAP1 POP DUP1 PUSH2 0x19A JUMPI PUSH1 0x0 DUP1 REVERT JUMPDEST POP POP POP JUMP JUMPDEST PUSH1 0x0 DUP1 SLOAD SWAP1 PUSH2 0x100 EXP SWAP1 DIV PUSH20 0xFFFFFFFFFFFFFFFFFFFFFFFFFFFFFFFFFFFFFFFF AND DUP2 JUMP JUMPDEST PUSH1 0x1 DUP1 SLOAD PUSH2 0x1D0 SWAP1 PUSH2 0x6B7 JUMP JUMPDEST DUP1 PUSH1 0x1F ADD PUSH1 0x20 DUP1 SWAP2 DIV MUL PUSH1 0x20 ADD PUSH1 0x40 MLOAD SWAP1 DUP2 ADD PUSH1 0x40 MSTORE DUP1 SWAP3 SWAP2 SWAP1 DUP2 DUP2 MSTORE PUSH1 0x20 ADD DUP3 DUP1 SLOAD PUSH2 0x1FC SWAP1 PUSH2 0x6B7 JUMP JUMPDEST DUP1 ISZERO PUSH2 0x249 JUMPI DUP1 PUSH1 0x1F LT PUSH2 0x21E JUMPI PUSH2 0x100 DUP1 DUP4 SLOAD DIV MUL DUP4 MSTORE SWAP2 PUSH1 0x20 ADD SWAP2 PUSH2 0x249 JUMP JUMPDEST DUP3 ADD SWAP2 SWAP1 PUSH1 0x0 MSTORE PUSH1 0x20 PUSH1 0x0 KECCAK256 SWAP1 JUMPDEST DUP2 SLOAD DUP2 MSTORE SWAP1 PUSH1 0x1 ADD SWAP1 PUSH1 0x20 ADD DUP1 DUP4 GT PUSH2 0x22C JUMPI DUP3 SWAP1 SUB PUSH1 0x1F AND DUP3 ADD SWAP2 JUMPDEST POP POP POP POP POP DUP2 JUMP JUMPDEST PUSH1 0x40 MLOAD DUP1 PUSH1 0x40 ADD PUSH1 0x40 MSTORE DUP1 PUSH1 0x7 DUP2 MSTORE PUSH1 0x20 ADD PUSH32 0x64656661756C7400000000000000000000000000000000000000000000000000 DUP2 MSTORE POP PUSH1 0x1 SWAP1 DUP1 MLOAD SWAP1 PUSH1 0x20 ADD SWAP1 PUSH2 0x29C SWAP3 SWAP2 SWAP1 PUSH2 0x29F JUMP JUMPDEST POP JUMP JUMPDEST DUP3 DUP1 SLOAD PUSH2 0x2AB SWAP1 PUSH2 0x6B7 JUMP JUMPDEST SWAP1 PUSH1 0x0 MSTORE PUSH1 0x20 PUSH1 0x0 KECCAK256 SWAP1 PUSH1 0x1F ADD PUSH1 0x20 SWAP1 DIV DUP2 ADD SWAP3 DUP3 PUSH2 0x2CD JUMPI PUSH1 0x0 DUP6 SSTORE PUSH2 0x314 JUMP JUMPDEST DUP3 PUSH1 0x1F LT PUSH2 0x2E6 JUMPI DUP1 MLOAD PUSH1 0xFF NOT AND DUP4 DUP1 ADD OR DUP6 SSTORE PUSH2 0x314 JUMP JUMPDEST DUP3 DUP1 ADD PUSH1 0x1 ADD DUP6 SSTORE DUP3 ISZERO PUSH2 0x314 JUMPI SWAP2 DUP3 ADD JUMPDEST DUP3 DUP2 GT ISZERO PUSH2 0x313 JUMPI DUP3 MLOAD DUP3 SSTORE SWAP2 PUSH1 0x20 ADD SWAP2 SWAP1 PUSH1 0x1 ADD SWAP1 PUSH2 0x2F8 JUMP JUMPDEST JUMPDEST POP SWAP1 POP PUSH2 0x321 SWAP2 SWAP1 PUSH2 0x325 JUMP JUMPDEST POP SWAP1 JUMP JUMPDEST JUMPDEST DUP1 DUP3 GT ISZERO PUSH2 0x33E JUMPI PUSH1 0x0 DUP2 PUSH1 0x0 SWAP1 SSTORE POP PUSH1 0x1 ADD PUSH2 0x326 JUMP JUMPDEST POP SWAP1 JUMP JUMPDEST PUSH1 0x0 PUSH1 0x40 MLOAD SWAP1 POP SWAP1 JUMP JUMPDEST PUSH1 0x0 DUP1 REVERT JUMPDEST PUSH1 0x0 DUP1 REVERT JUMPDEST PUSH1 0x0 PUSH20 0xFFFFFFFFFFFFFFFFFFFFFFFFFFFFFFFFFFFFFFFF DUP3 AND SWAP1 POP SWAP2 SWAP1 POP JUMP JUMPDEST PUSH1 0x0 PUSH2 0x381 DUP3 PUSH2 0x356 JUMP JUMPDEST SWAP1 POP SWAP2 SWAP1 POP JUMP JUMPDEST PUSH2 0x391 DUP2 PUSH2 0x376 JUMP JUMPDEST DUP2 EQ PUSH2 0x39C JUMPI PUSH1 0x0 DUP1 REVERT JUMPDEST POP JUMP JUMPDEST PUSH1 0x0 DUP2 CALLDATALOAD SWAP1 POP PUSH2 0x3AE DUP2 PUSH2 0x388 JUMP JUMPDEST SWAP3 SWAP2 POP POP JUMP JUMPDEST PUSH1 0x0 DUP1 REVERT JUMPDEST PUSH1 0x0 DUP1 REVERT JUMPDEST PUSH1 0x0 PUSH1 0x1F NOT PUSH1 0x1F DUP4 ADD AND SWAP1 POP SWAP2 SWAP1 POP JUMP JUMPDEST PUSH32 0x4E487B7100000000000000000000000000000000000000000000000000000000 PUSH1 0x0 MSTORE PUSH1 0x41 PUSH1 0x4 MSTORE PUSH1 0x24 PUSH1 0x0 REVERT JUMPDEST PUSH2 0x407 DUP3 PUSH2 0x3BE JUMP JUMPDEST DUP2 ADD DUP2 DUP2 LT PUSH8 0xFFFFFFFFFFFFFFFF DUP3 GT OR ISZERO PUSH2 0x426 JUMPI PUSH2 0x425 PUSH2 0x3CF JUMP JUMPDEST JUMPDEST DUP1 PUSH1 0x40 MSTORE POP POP POP JUMP JUMPDEST PUSH1 0x0 PUSH2 0x439 PUSH2 0x342 JUMP JUMPDEST SWAP1 POP PUSH2 0x445 DUP3 DUP3 PUSH2 0x3FE JUMP JUMPDEST SWAP2 SWAP1 POP JUMP JUMPDEST PUSH1 0x0 PUSH8 0xFFFFFFFFFFFFFFFF DUP3 GT ISZERO PUSH2 0x465 JUMPI PUSH2 0x464 PUSH2 0x3CF JUMP JUMPDEST JUMPDEST PUSH2 0x46E DUP3 PUSH2 0x3BE JUMP JUMPDEST SWAP1 POP PUSH1 0x20 DUP2 ADD SWAP1 POP SWAP2 SWAP1 POP JUMP JUMPDEST DUP3 DUP2 DUP4 CALLDATACOPY PUSH1 0x0 DUP4 DUP4 ADD MSTORE POP POP POP JUMP JUMPDEST PUSH1 0x0 PUSH2 0x49D PUSH2 0x498 DUP5 PUSH2 0x44A JUMP JUMPDEST PUSH2 0x42F JUMP JUMPDEST SWAP1 POP DUP3 DUP2 MSTORE PUSH1 0x20 DUP2 ADD DUP5 DUP5 DUP5 ADD GT ISZERO PUSH2 0x4B9 JUMPI PUSH2 0x4B8 PUSH2 0x3B9 JUMP JUMPDEST JUMPDEST PUSH2 0x4C4 DUP5 DUP3 DUP6 PUSH2 0x47B JUMP JUMPDEST POP SWAP4 SWAP3 POP POP POP JUMP JUMPDEST PUSH1 0x0 DUP3 PUSH1 0x1F DUP4 ADD SLT PUSH2 0x4E1 JUMPI PUSH2 0x4E0 PUSH2 0x3B4 JUMP JUMPDEST JUMPDEST DUP2 CALLDATALOAD PUSH2 0x4F1 DUP5 DUP3 PUSH1 0x20 DUP7 ADD PUSH2 0x48A JUMP JUMPDEST SWAP2 POP POP SWAP3 SWAP2 POP POP JUMP JUMPDEST PUSH1 0x0 DUP1 PUSH1 0x40 DUP4 DUP6 SUB SLT ISZERO PUSH2 0x511 JUMPI PUSH2 0x510 PUSH2 0x34C JUMP JUMPDEST JUMPDEST PUSH1 0x0 PUSH2 0x51F DUP6 DUP3 DUP7 ADD PUSH2 0x39F JUMP JUMPDEST SWAP3 POP POP PUSH1 0x20 DUP4 ADD CALLDATALOAD PUSH8 0xFFFFFFFFFFFFFFFF DUP2 GT ISZERO PUSH2 0x540 JUMPI PUSH2 0x53F PUSH2 0x351 JUMP JUMPDEST JUMPDEST PUSH2 0x54C DUP6 DUP3 DUP7 ADD PUSH2 0x4CC JUMP JUMPDEST SWAP2 POP POP SWAP3 POP SWAP3 SWAP1 POP JUMP JUMPDEST PUSH2 0x55F DUP2 PUSH2 0x376 JUMP JUMPDEST DUP3 MSTORE POP POP JUMP JUMPDEST PUSH1 0x0 PUSH1 0x20 DUP3 ADD SWAP1 POP PUSH2 0x57A PUSH1 0x0 DUP4 ADD DUP5 PUSH2 0x556 JUMP JUMPDEST SWAP3 SWAP2 POP POP JUMP JUMPDEST PUSH1 0x0 DUP2 MLOAD SWAP1 POP SWAP2 SWAP1 POP JUMP JUMPDEST PUSH1 0x0 DUP3 DUP3 MSTORE PUSH1 0x20 DUP3 ADD SWAP1 POP SWAP3 SWAP2 POP POP JUMP JUMPDEST PUSH1 0x0 JUMPDEST DUP4 DUP2 LT ISZERO PUSH2 0x5BA JUMPI DUP1 DUP3 ADD MLOAD DUP2 DUP5 ADD MSTORE PUSH1 0x20 DUP2 ADD SWAP1 POP PUSH2 0x59F JUMP JUMPDEST DUP4 DUP2 GT ISZERO PUSH2 0x5C9 JUMPI PUSH1 0x0 DUP5 DUP5 ADD MSTORE JUMPDEST POP POP POP POP JUMP JUMPDEST PUSH1 0x0 PUSH2 0x5DA DUP3 PUSH2 0x580 JUMP JUMPDEST PUSH2 0x5E4 DUP2 DUP6 PUSH2 0x58B JUMP JUMPDEST SWAP4 POP PUSH2 0x5F4 DUP2 DUP6 PUSH1 0x20 DUP7 ADD PUSH2 0x59C JUMP JUMPDEST PUSH2 0x5FD DUP2 PUSH2 0x3BE JUMP JUMPDEST DUP5 ADD SWAP2 POP POP SWAP3 SWAP2 POP POP JUMP JUMPDEST PUSH1 0x0 PUSH1 0x20 DUP3 ADD SWAP1 POP DUP2 DUP2 SUB PUSH1 0x0 DUP4 ADD MSTORE PUSH2 0x622 DUP2 DUP5 PUSH2 0x5CF JUMP JUMPDEST SWAP1 POP SWAP3 SWAP2 POP POP JUMP JUMPDEST PUSH1 0x0 DUP2 MLOAD SWAP1 POP SWAP2 SWAP1 POP JUMP JUMPDEST PUSH1 0x0 DUP2 SWAP1 POP SWAP3 SWAP2 POP POP JUMP JUMPDEST PUSH1 0x0 PUSH2 0x64B DUP3 PUSH2 0x62A JUMP JUMPDEST PUSH2 0x655 DUP2 DUP6 PUSH2 0x635 JUMP JUMPDEST SWAP4 POP PUSH2 0x665 DUP2 DUP6 PUSH1 0x20 DUP7 ADD PUSH2 0x59C JUMP JUMPDEST DUP1 DUP5 ADD SWAP2 POP POP SWAP3 SWAP2 POP POP JUMP JUMPDEST PUSH1 0x0 PUSH2 0x67D DUP3 DUP5 PUSH2 0x640 JUMP JUMPDEST SWAP2 POP DUP2 SWAP1 POP SWAP3 SWAP2 POP POP JUMP JUMPDEST PUSH32 0x4E487B7100000000000000000000000000000000000000000000000000000000 PUSH1 0x0 MSTORE PUSH1 0x22 PUSH1 0x4 MSTORE PUSH1 0x24 PUSH1 0x0 REVERT JUMPDEST PUSH1 0x0 PUSH1 0x2 DUP3 DIV SWAP1 POP PUSH1 0x1 DUP3 AND DUP1 PUSH2 0x6CF JUMPI PUSH1 0x7F DUP3 AND SWAP2 POP JUMPDEST PUSH1 0x20 DUP3 LT DUP2 EQ ISZERO PUSH2 0x6E3 JUMPI PUSH2 0x6E2 PUSH2 0x688 JUMP JUMPDEST JUMPDEST POP SWAP2 SWAP1 POP JUMP INVALID LOG2 PUSH5 0x6970667358 0x22 SLT KECCAK256 PUSH11 0x9FE8FB62C964A5D8D5F48 PUSH25 0x3CCE4659CAACDA67F57C84E25DC2F0B96B1A4F64736F6C6343 STOP ADDMOD EXP STOP CALLER PUSH1 0x80 PUSH1 0x40 MSTORE CALLVALUE DUP1 ISZERO PUSH2 0x10 JUMPI PUSH1 0x0 DUP1 REVERT JUMPDEST POP PUSH2 0x334 DUP1 PUSH2 0x20 PUSH1 0x0 CODECOPY PUSH1 0x0 RETURN INVALID PUSH1 0x80 PUSH1 0x40 MSTORE PUSH1 0x4 CALLDATASIZE LT PUSH2 0x29 JUMPI PUSH1 0x0 CALLDATALOAD PUSH1 0xE0 SHR DUP1 PUSH4 0x8F1DB79B EQ PUSH2 0x2E JUMPI DUP1 PUSH4 0xF8A8FD6D EQ PUSH2 0x59 JUMPI JUMPDEST PUSH1 0x0 DUP1 REVERT JUMPDEST CALLVALUE DUP1 ISZERO PUSH2 0x3A JUMPI PUSH1 0x0 DUP1 REVERT JUMPDEST POP PUSH2 0x43 PUSH2 0x63 JUMP JUMPDEST PUSH1 0x40 MLOAD PUSH2 0x50 SWAP2 SWAP1 PUSH2 0x27B JUMP JUMPDEST PUSH1 0x40 MLOAD DUP1 SWAP2 SUB SWAP1 RETURN JUMPDEST PUSH2 0x61 PUSH2 0xF1 JUMP JUMPDEST STOP JUMPDEST PUSH1 0x0 DUP1 SLOAD PUSH2 0x70 SWAP1 PUSH2 0x2CC JUMP JUMPDEST DUP1 PUSH1 0x1F ADD PUSH1 0x20 DUP1 SWAP2 DIV MUL PUSH1 0x20 ADD PUSH1 0x40 MLOAD SWAP1 DUP2 ADD PUSH1 0x40 MSTORE DUP1 SWAP3 SWAP2 SWAP1 DUP2 DUP2 MSTORE PUSH1 0x20 ADD DUP3 DUP1 SLOAD PUSH2 0x9C SWAP1 PUSH2 0x2CC JUMP JUMPDEST DUP1 ISZERO PUSH2 0xE9 JUMPI DUP1 PUSH1 0x1F LT PUSH2 0xBE JUMPI PUSH2 0x100 DUP1 DUP4 SLOAD DIV MUL DUP4 MSTORE SWAP2 PUSH1 0x20 ADD SWAP2 PUSH2 0xE9 JUMP JUMPDEST DUP3 ADD SWAP2 SWAP1 PUSH1 0x0 MSTORE PUSH1 0x20 PUSH1 0x0 KECCAK256 SWAP1 JUMPDEST DUP2 SLOAD DUP2 MSTORE SWAP1 PUSH1 0x1 ADD SWAP1 PUSH1 0x20 ADD DUP1 DUP4 GT PUSH2 0xCC JUMPI DUP3 SWAP1 SUB PUSH1 0x1F AND DUP3 ADD SWAP2 JUMPDEST POP POP POP POP POP DUP2 JUMP JUMPDEST PUSH1 0x40 MLOAD DUP1 PUSH1 0x40 ADD PUSH1 0x40 MSTORE DUP1 PUSH1 0x9 DUP2 MSTORE PUSH1 0x20 ADD PUSH32 0x6D616C6963696F75730000000000000000000000000000000000000000000000 DUP2 MSTORE POP PUSH1 0x0 SWAP1 DUP1 MLOAD SWAP1 PUSH1 0x20 ADD SWAP1 PUSH2 0x13C SWAP3 SWAP2 SWAP1 PUSH2 0x13F JUMP JUMPDEST POP JUMP JUMPDEST DUP3 DUP1 SLOAD PUSH2 0x14B SWAP1 PUSH2 0x2CC JUMP JUMPDEST SWAP1 PUSH1 0x0 MSTORE PUSH1 0x20 PUSH1 0x0 KECCAK256 SWAP1 PUSH1 0x1F ADD PUSH1 0x20 SWAP1 DIV DUP2 ADD SWAP3 DUP3 PUSH2 0x16D JUMPI PUSH1 0x0 DUP6 SSTORE PUSH2 0x1B4 JUMP JUMPDEST DUP3 PUSH1 0x1F LT PUSH2 0x186 JUMPI DUP1 MLOAD PUSH1 0xFF NOT AND DUP4 DUP1 ADD OR DUP6 SSTORE PUSH2 0x1B4 JUMP JUMPDEST DUP3 DUP1 ADD PUSH1 0x1 ADD DUP6 SSTORE DUP3 ISZERO PUSH2 0x1B4 JUMPI SWAP2 DUP3 ADD JUMPDEST DUP3 DUP2 GT ISZERO PUSH2 0x1B3 JUMPI DUP3 MLOAD DUP3 SSTORE SWAP2 PUSH1 0x20 ADD SWAP2 SWAP1 PUSH1 0x1 ADD SWAP1 PUSH2 0x198 JUMP JUMPDEST JUMPDEST POP SWAP1 POP PUSH2 0x1C1 SWAP2 SWAP1 PUSH2 0x1C5 JUMP JUMPDEST POP SWAP1 JUMP JUMPDEST JUMPDEST DUP1 DUP3 GT ISZERO PUSH2 0x1DE JUMPI PUSH1 0x0 DUP2 PUSH1 0x0 SWAP1 SSTORE POP PUSH1 0x1 ADD PUSH2 0x1C6 JUMP JUMPDEST POP SWAP1 JUMP JUMPDEST PUSH1 0x0 DUP2 MLOAD SWAP1 POP SWAP2 SWAP1 POP JUMP JUMPDEST PUSH1 0x0 DUP3 DUP3 MSTORE PUSH1 0x20 DUP3 ADD SWAP1 POP SWAP3 SWAP2 POP POP JUMP JUMPDEST PUSH1 0x0 JUMPDEST DUP4 DUP2 LT ISZERO PUSH2 0x21C JUMPI DUP1 DUP3 ADD MLOAD DUP2 DUP5 ADD MSTORE PUSH1 0x20 DUP2 ADD SWAP1 POP PUSH2 0x201 JUMP JUMPDEST DUP4 DUP2 GT ISZERO PUSH2 0x22B JUMPI PUSH1 0x0 DUP5 DUP5 ADD MSTORE JUMPDEST POP POP POP POP JUMP JUMPDEST PUSH1 0x0 PUSH1 0x1F NOT PUSH1 0x1F DUP4 ADD AND SWAP1 POP SWAP2 SWAP1 POP JUMP JUMPDEST PUSH1 0x0 PUSH2 0x24D DUP3 PUSH2 0x1E2 JUMP JUMPDEST PUSH2 0x257 DUP2 DUP6 PUSH2 0x1ED JUMP JUMPDEST SWAP4 POP PUSH2 0x267 DUP2 DUP6 PUSH1 0x20 DUP7 ADD PUSH2 0x1FE JUMP JUMPDEST PUSH2 0x270 DUP2 PUSH2 0x231 JUMP JUMPDEST DUP5 ADD SWAP2 POP POP SWAP3 SWAP2 POP POP JUMP JUMPDEST PUSH1 0x0 PUSH1 0x20 DUP3 ADD SWAP1 POP DUP2 DUP2 SUB PUSH1 0x0 DUP4 ADD MSTORE PUSH2 0x295 DUP2 DUP5 PUSH2 0x242 JUMP JUMPDEST SWAP1 POP SWAP3 SWAP2 POP POP JUMP JUMPDEST PUSH32 0x4E487B7100000000000000000000000000000000000000000000000000000000 PUSH1 0x0 MSTORE PUSH1 0x22 PUSH1 0x4 MSTORE PUSH1 0x24 PUSH1 0x0 REVERT JUMPDEST PUSH1 0x0 PUSH1 0x2 DUP3 DIV SWAP1 POP PUSH1 0x1 DUP3 AND DUP1 PUSH2 0x2E4 JUMPI PUSH1 0x7F DUP3 AND SWAP2 POP JUMPDEST PUSH1 0x20 DUP3 LT DUP2 EQ ISZERO PUSH2 0x2F8 JUMPI PUSH2 0x2F7 PUSH2 0x29D JUMP JUMPDEST JUMPDEST POP SWAP2 SWAP1 POP JUMP INVALID LOG2 PUSH5 0x6970667358 0x22 SLT KECCAK256 0x4F 0xF6 MLOAD RETURNDATASIZE 0xCF 0xC1 SAR 0x26 0x4B 0xE8 0xCF REVERT MLOAD GASLIMIT DUP2 0x2F 0xD9 0x5E SWAP9 SELFDESTRUCT GT 0xF 0xF6 SWAP5 SWAP2 0x21 LOG3 SWAP8 BYTE PUSH27 0xF74A64736F6C634300080A0033A2646970667358221220C143308C 0xB4 0xC SWAP12 0xB7 RETURNDATASIZE 0xA7 0xE2 PUSH11 0x8C3E55A32EF16C93AE1CEE SDIV PUSH1 0x99 0xCD 0x5C DUP10 SHR 0xAA 0xC3 PUSH5 0x736F6C6343 STOP ADDMOD EXP STOP CALLER LOG2 PUSH5 0x6970667358 0x22 SLT KECCAK256 0xC3 0xB9 0xE1 PUSH15 0x569FDD980DD5BC5DA0E0477B4BC17F DUP5 0xC6 0xDA EQ LOG3 SELFBALANCE 0xB0 0xAF 0xEA 0xDB 0x21 SELFBALANCE 0xD4 PUSH5 0x736F6C6343 STOP ADDMOD EXP STOP CALLER "},"methodIdentifiers":{"deploy(bool)":"75663eaa","deployedContract()":"ae242cdf","kill()":"41c0e1b5"}}}}}