{
  "_format": "hh-sol-artifact-1",
  "contractName": "Attacker01",
  "sourceName": "contracts/attack/Attacker01.sol",
  "abi": [
    {
      "inputs": [
        {
          "internalType": "bool",
          "name": "isDefault",
          "type": "bool"
        }
      ],
      "name": "deploy",
      "outputs": [
        {
          "internalType": "address",
          "name": "contractAddr",
          "type": "address"
        }
      ],
      "stateMutability": "nonpayable",
      "type": "function"
    },
    {
      "inputs": [],
      "name": "deployedContract",
      "outputs": [
        {
          "internalType": "contract Attacker02",
          "name": "",
          "type": "address"
        }
      ],
      "stateMutability": "view",
      "type": "function"
    },
    {
      "inputs": [],
      "name": "kill",
      "outputs": [],
      "stateMutability": "nonpayable",
      "type": "function"
    }
  ],
  "bytecode": "0x608060405234801561001057600080fd5b50611408806100206000396000f3fe608060405234801561001057600080fd5b50600436106100415760003560e01c806341c0e1b51461004657806375663eaa14610050578063ae242cdf14610080575b600080fd5b61004e61009e565b005b61006a600480360381019061006591906102b2565b610120565b6040516100779190610320565b60405180910390f35b610088610244565b604051610095919061039a565b60405180910390f35b60008054906101000a900473ffffffffffffffffffffffffffffffffffffffff1673ffffffffffffffffffffffffffffffffffffffff166384e9b7736040518163ffffffff1660e01b8152600401600060405180830381600087803b15801561010657600080fd5b505af115801561011a573d6000803e3d6000fd5b50505050565b6000806040518060200161013390610268565b6020820181038252601f19601f8201166040525090506000620abcde60001b9050808251602084016000f59250826000806101000a81548173ffffffffffffffffffffffffffffffffffffffff021916908373ffffffffffffffffffffffffffffffffffffffff16021790555060008054906101000a900473ffffffffffffffffffffffffffffffffffffffff1673ffffffffffffffffffffffffffffffffffffffff166375663eaa856040518263ffffffff1660e01b81526004016101f991906103c4565b6020604051808303816000875af1158015610218573d6000803e3d6000fd5b505050506040513d601f19601f8201168201806040525081019061023c919061040b565b505050919050565b60008054906101000a900473ffffffffffffffffffffffffffffffffffffffff1681565b610f9a8061043983390190565b600080fd5b60008115159050919050565b61028f8161027a565b811461029a57600080fd5b50565b6000813590506102ac81610286565b92915050565b6000602082840312156102c8576102c7610275565b5b60006102d68482850161029d565b91505092915050565b600073ffffffffffffffffffffffffffffffffffffffff82169050919050565b600061030a826102df565b9050919050565b61031a816102ff565b82525050565b60006020820190506103356000830184610311565b92915050565b6000819050919050565b600061036061035b610356846102df565b61033b565b6102df565b9050919050565b600061037282610345565b9050919050565b600061038482610367565b9050919050565b61039481610379565b82525050565b60006020820190506103af600083018461038b565b92915050565b6103be8161027a565b82525050565b60006020820190506103d960008301846103b5565b92915050565b6103e8816102ff565b81146103f357600080fd5b50565b600081519050610405816103df565b92915050565b60006020828403121561042157610420610275565b5b600061042f848285016103f6565b9150509291505056fe608060405234801561001057600080fd5b50610f7a806100206000396000f3fe608060405234801561001057600080fd5b506004361061004c5760003560e01c80631bb943fd1461005157806348eb76ee1461005b57806375663eaa1461007957806384e9b773146100a9575b600080fd5b6100596100b3565b005b6100636100cc565b6040516100709190610323565b60405180910390f35b610093600480360381019061008e919061037b565b6100f0565b6040516100a09190610323565b60405180910390f35b6100b16101a5565b005b3373ffffffffffffffffffffffffffffffffffffffff16ff5b60008054906101000a900473ffffffffffffffffffffffffffffffffffffffff1681565b6000811561012e576000604051610106906102c8565b604051809103906000f080158015610122573d6000803e3d6000fd5b50905080915050610160565b600060405161013c906102d5565b604051809103906000f080158015610158573d6000803e3d6000fd5b509050809150505b806000806101000a81548173ffffffffffffffffffffffffffffffffffffffff021916908373ffffffffffffffffffffffffffffffffffffffff160217905550919050565b6101ad6101b7565b6101b56100b3565b565b60008054906101000a900473ffffffffffffffffffffffffffffffffffffffff1673ffffffffffffffffffffffffffffffffffffffff166356e7b7aa306040516024016040516020818303038152906040527f1bb943fd000000000000000000000000000000000000000000000000000000007bffffffffffffffffffffffffffffffffffffffffffffffffffffffff19166020820180517bffffffffffffffffffffffffffffffffffffffffffffffffffffffff83818316178352505050506040518363ffffffff1660e01b8152600401610294929190610441565b600060405180830381600087803b1580156102ae57600080fd5b505af11580156102c2573d6000803e3d6000fd5b50505050565b61077f8061047283390190565b61035480610bf183390190565b600073ffffffffffffffffffffffffffffffffffffffff82169050919050565b600061030d826102e2565b9050919050565b61031d81610302565b82525050565b60006020820190506103386000830184610314565b92915050565b600080fd5b60008115159050919050565b61035881610343565b811461036357600080fd5b50565b6000813590506103758161034f565b92915050565b6000602082840312156103915761039061033e565b5b600061039f84828501610366565b91505092915050565b600081519050919050565b600082825260208201905092915050565b60005b838110156103e25780820151818401526020810190506103c7565b838111156103f1576000848401525b50505050565b6000601f19601f8301169050919050565b6000610413826103a8565b61041d81856103b3565b935061042d8185602086016103c4565b610436816103f7565b840191505092915050565b60006040820190506104566000830185610314565b81810360208301526104688184610408565b9050939250505056fe608060405234801561001057600080fd5b50336000806101000a81548173ffffffffffffffffffffffffffffffffffffffff021916908373ffffffffffffffffffffffffffffffffffffffff16021790555061071f806100606000396000f3fe60806040526004361061003f5760003560e01c806356e7b7aa146100445780638da5cb5b1461006d5780638f1db79b14610098578063f8a8fd6d146100c3575b600080fd5b34801561005057600080fd5b5061006b600480360381019061006691906104fa565b6100cd565b005b34801561007957600080fd5b5061008261019f565b60405161008f9190610565565b60405180910390f35b3480156100a457600080fd5b506100ad6101c3565b6040516100ba9190610608565b60405180910390f35b6100cb610251565b005b60008054906101000a900473ffffffffffffffffffffffffffffffffffffffff1673ffffffffffffffffffffffffffffffffffffffff163373ffffffffffffffffffffffffffffffffffffffff161461012557600080fd5b60008273ffffffffffffffffffffffffffffffffffffffff168260405161014c9190610671565b600060405180830381855af49150503d8060008114610187576040519150601f19603f3d011682016040523d82523d6000602084013e61018c565b606091505b505090508061019a57600080fd5b505050565b60008054906101000a900473ffffffffffffffffffffffffffffffffffffffff1681565b600180546101d0906106b7565b80601f01602080910402602001604051908101604052809291908181526020018280546101fc906106b7565b80156102495780601f1061021e57610100808354040283529160200191610249565b820191906000526020600020905b81548152906001019060200180831161022c57829003601f168201915b505050505081565b6040518060400160405280600781526020017f64656661756c74000000000000000000000000000000000000000000000000008152506001908051906020019061029c92919061029f565b50565b8280546102ab906106b7565b90600052602060002090601f0160209004810192826102cd5760008555610314565b82601f106102e657805160ff1916838001178555610314565b82800160010185558215610314579182015b828111156103135782518255916020019190600101906102f8565b5b5090506103219190610325565b5090565b5b8082111561033e576000816000905550600101610326565b5090565b6000604051905090565b600080fd5b600080fd5b600073ffffffffffffffffffffffffffffffffffffffff82169050919050565b600061038182610356565b9050919050565b61039181610376565b811461039c57600080fd5b50565b6000813590506103ae81610388565b92915050565b600080fd5b600080fd5b6000601f19601f8301169050919050565b7f4e487b7100000000000000000000000000000000000000000000000000000000600052604160045260246000fd5b610407826103be565b810181811067ffffffffffffffff82111715610426576104256103cf565b5b80604052505050565b6000610439610342565b905061044582826103fe565b919050565b600067ffffffffffffffff821115610465576104646103cf565b5b61046e826103be565b9050602081019050919050565b82818337600083830152505050565b600061049d6104988461044a565b61042f565b9050828152602081018484840111156104b9576104b86103b9565b5b6104c484828561047b565b509392505050565b600082601f8301126104e1576104e06103b4565b5b81356104f184826020860161048a565b91505092915050565b600080604083850312156105115761051061034c565b5b600061051f8582860161039f565b925050602083013567ffffffffffffffff8111156105405761053f610351565b5b61054c858286016104cc565b9150509250929050565b61055f81610376565b82525050565b600060208201905061057a6000830184610556565b92915050565b600081519050919050565b600082825260208201905092915050565b60005b838110156105ba57808201518184015260208101905061059f565b838111156105c9576000848401525b50505050565b60006105da82610580565b6105e4818561058b565b93506105f481856020860161059c565b6105fd816103be565b840191505092915050565b6000602082019050818103600083015261062281846105cf565b905092915050565b600081519050919050565b600081905092915050565b600061064b8261062a565b6106558185610635565b935061066581856020860161059c565b80840191505092915050565b600061067d8284610640565b915081905092915050565b7f4e487b7100000000000000000000000000000000000000000000000000000000600052602260045260246000fd5b600060028204905060018216806106cf57607f821691505b602082108114156106e3576106e2610688565b5b5091905056fea26469706673582212206a09fe8fb62c964a5d8d5f48783cce4659caacda67f57c84e25dc2f0b96b1a4f64736f6c634300080a0033608060405234801561001057600080fd5b50610334806100206000396000f3fe6080604052600436106100295760003560e01c80638f1db79b1461002e578063f8a8fd6d14610059575b600080fd5b34801561003a57600080fd5b50610043610063565b604051610050919061027b565b60405180910390f35b6100616100f1565b005b60008054610070906102cc565b80601f016020809104026020016040519081016040528092919081815260200182805461009c906102cc565b80156100e95780601f106100be576101008083540402835291602001916100e9565b820191906000526020600020905b8154815290600101906020018083116100cc57829003601f168201915b505050505081565b6040518060400160405280600981526020017f6d616c6963696f757300000000000000000000000000000000000000000000008152506000908051906020019061013c92919061013f565b50565b82805461014b906102cc565b90600052602060002090601f01602090048101928261016d57600085556101b4565b82601f1061018657805160ff19168380011785556101b4565b828001600101855582156101b4579182015b828111156101b3578251825591602001919060010190610198565b5b5090506101c191906101c5565b5090565b5b808211156101de5760008160009055506001016101c6565b5090565b600081519050919050565b600082825260208201905092915050565b60005b8381101561021c578082015181840152602081019050610201565b8381111561022b576000848401525b50505050565b6000601f19601f8301169050919050565b600061024d826101e2565b61025781856101ed565b93506102678185602086016101fe565b61027081610231565b840191505092915050565b600060208201905081810360008301526102958184610242565b905092915050565b7f4e487b7100000000000000000000000000000000000000000000000000000000600052602260045260246000fd5b600060028204905060018216806102e457607f821691505b602082108114156102f8576102f761029d565b5b5091905056fea26469706673582212204ff6513dcfc11d264be8cffd5145812fd95e98ff110ff6949121a3971a7af74a64736f6c634300080a0033a2646970667358221220c143308cb40c9bb73da7e26a8c3e55a32ef16c93ae1cee056099cd5c891caac364736f6c634300080a0033a2646970667358221220c3b9e16e569fdd980dd5bc5da0e0477b4bc17f84c6da14a347b0afeadb2147d464736f6c634300080a0033",
  "linkReferences": {},
  "deployedLinkReferences": {}
}