{
  "_format": "hh-sol-artifact-1",
  "contractName": "SafetyCallDAO",
  "sourceName": "contracts/mockDAO/SafetyCallDAO.sol",
  "abi": [
    {
      "inputs": [
        {
          "internalType": "contract ITimelock",
          "name": "_timelock",
          "type": "address"
        }
      ],
      "stateMutability": "nonpayable",
      "type": "constructor"
    },
    {
      "inputs": [
        {
          "internalType": "uint256",
          "name": "proposalId",
          "type": "uint256"
        }
      ],
      "name": "execute",
      "outputs": [],
      "stateMutability": "payable",
      "type": "function"
    },
    {
      "inputs": [],
      "name": "nextProposalId",
      "outputs": [
        {
          "internalType": "uint256",
          "name": "",
          "type": "uint256"
        }
      ],
      "stateMutability": "view",
      "type": "function"
    },
    {
      "inputs": [
        {
          "internalType": "uint256",
          "name": "",
          "type": "uint256"
        }
      ],
      "name": "proposals",
      "outputs": [
        {
          "internalType": "uint256",
          "name": "id",
          "type": "uint256"
        },
        {
          "internalType": "bool",
          "name": "executed",
          "type": "bool"
        }
      ],
      "stateMutability": "view",
      "type": "function"
    },
    {
      "inputs": [
        {
          "internalType": "address[]",
          "name": "targets",
          "type": "address[]"
        },
        {
          "internalType": "uint256[]",
          "name": "values",
          "type": "uint256[]"
        },
        {
          "internalType": "string[]",
          "name": "signatures",
          "type": "string[]"
        },
        {
          "internalType": "bytes[]",
          "name": "calldatas",
          "type": "bytes[]"
        }
      ],
      "name": "propose",
      "outputs": [
        {
          "internalType": "uint256",
          "name": "id",
          "type": "uint256"
        }
      ],
      "stateMutability": "nonpayable",
      "type": "function"
    },
    {
      "inputs": [],
      "name": "timelock",
      "outputs": [
        {
          "internalType": "contract ITimelock",
          "name": "",
          "type": "address"
        }
      ],
      "stateMutability": "view",
      "type": "function"
    }
  ],
  "bytecode": "0x60806040523480156200001157600080fd5b5060405162001a2b38038062001a2b8339818101604052810190620000379190620000fd565b80600260006101000a81548173ffffffffffffffffffffffffffffffffffffffff021916908373ffffffffffffffffffffffffffffffffffffffff160217905550506200012f565b600080fd5b600073ffffffffffffffffffffffffffffffffffffffff82169050919050565b6000620000b18262000084565b9050919050565b6000620000c582620000a4565b9050919050565b620000d781620000b8565b8114620000e357600080fd5b50565b600081519050620000f781620000cc565b92915050565b6000602082840312156200011657620001156200007f565b5b60006200012684828501620000e6565b91505092915050565b6118ec806200013f6000396000f3fe60806040526004361061004a5760003560e01c8063013cf08b1461004f5780632ab09d141461008d5780632eeed88f146100b8578063d33219b4146100f5578063fe0d94c114610120575b600080fd5b34801561005b57600080fd5b5061007660048036038101906100719190610b74565b61013c565b604051610084929190610bcb565b60405180910390f35b34801561009957600080fd5b506100a261016d565b6040516100af9190610bf4565b60405180910390f35b3480156100c457600080fd5b506100df60048036038101906100da91906111a1565b610173565b6040516100ec9190610bf4565b60405180910390f35b34801561010157600080fd5b5061010a610421565b60405161011791906112d7565b60405180910390f35b61013a60048036038101906101359190610b74565b610447565b005b60006020528060005260406000206000915090508060000154908060060160009054906101000a900460ff16905082565b60015481565b6000808551905084518114801561018a5750835181145b80156101965750825181145b6101d5576040517f08c379a00000000000000000000000000000000000000000000000000000000081526004016101cc9061139b565b60405180910390fd5b6000811415610219576040517f08c379a00000000000000000000000000000000000000000000000000000000081526004016102109061142d565b60405180910390fd5b600154915060016000815461022d9061147c565b9190508190555060008167ffffffffffffffff8111156102505761024f610c25565b5b60405190808252806020026020018201604052801561027e5781602001602082028036833780820191505090505b50905060005b8281101561030a5787818151811061029f5761029e6114c5565b5b602002602001015173ffffffffffffffffffffffffffffffffffffffff16803b806020016040519081016040528181526000908060200190933c805190602001208282815181106102f3576102f26114c5565b5b602002602001018181525050806001019050610284565b5060006040518060e001604052808581526020018981526020018881526020018781526020018681526020018381526020016000151581525090508060008086815260200190815260200160002060008201518160000155602082015181600101908051906020019061037e929190610738565b50604082015181600201908051906020019061039b9291906107c2565b5060608201518160030190805190602001906103b892919061080f565b5060808201518160040190805190602001906103d592919061086f565b5060a08201518160050190805190602001906103f29291906108cf565b5060c08201518160060160006101000a81548160ff021916908315150217905550905050505050949350505050565b600260009054906101000a900473ffffffffffffffffffffffffffffffffffffffff1681565b600080600083815260200190815260200160002090508060060160009054906101000a900460ff16156104af576040517f08c379a00000000000000000000000000000000000000000000000000000000081526004016104a690611540565b60405180910390fd5b60018160060160006101000a81548160ff02191690831515021790555060008160010180549050905060005b81811015610732578260010181815481106104f9576104f86114c5565b5b9060005260206000200160009054906101000a900473ffffffffffffffffffffffffffffffffffffffff1673ffffffffffffffffffffffffffffffffffffffff16803b806020016040519081016040528181526000908060200190933c80519060200120836005018281548110610573576105726114c5565b5b9060005260206000200154146105be576040517f08c379a00000000000000000000000000000000000000000000000000000000081526004016105b5906115ac565b60405180910390fd5b600260009054906101000a900473ffffffffffffffffffffffffffffffffffffffff1673ffffffffffffffffffffffffffffffffffffffff16632224fa25846002018381548110610612576106116114c5565b5b9060005260206000200154856001018481548110610633576106326114c5565b5b9060005260206000200160009054906101000a900473ffffffffffffffffffffffffffffffffffffffff16866002018581548110610674576106736114c5565b5b9060005260206000200154876003018681548110610695576106946114c5565b5b906000526020600020018860040187815481106106b5576106b46114c5565b5b906000526020600020016040518663ffffffff1660e01b81526004016106de9493929190611777565b60006040518083038185885af11580156106fc573d6000803e3d6000fd5b50505050506040513d6000823e3d601f19601f82011682018060405250810190610726919061186d565b508060010190506104db565b50505050565b8280548282559060005260206000209081019282156107b1579160200282015b828111156107b05782518260006101000a81548173ffffffffffffffffffffffffffffffffffffffff021916908373ffffffffffffffffffffffffffffffffffffffff16021790555091602001919060010190610758565b5b5090506107be919061091c565b5090565b8280548282559060005260206000209081019282156107fe579160200282015b828111156107fd5782518255916020019190600101906107e2565b5b50905061080b919061091c565b5090565b82805482825590600052602060002090810192821561085e579160200282015b8281111561085d57825182908051906020019061084d929190610939565b509160200191906001019061082f565b5b50905061086b91906109bf565b5090565b8280548282559060005260206000209081019282156108be579160200282015b828111156108bd5782518290805190602001906108ad9291906109e3565b509160200191906001019061088f565b5b5090506108cb9190610a69565b5090565b82805482825590600052602060002090810192821561090b579160200282015b8281111561090a5782518255916020019190600101906108ef565b5b5090506109189190610a8d565b5090565b5b8082111561093557600081600090555060010161091d565b5090565b8280546109459061160a565b90600052602060002090601f01602090048101928261096757600085556109ae565b82601f1061098057805160ff19168380011785556109ae565b828001600101855582156109ae579182015b828111156109ad578251825591602001919060010190610992565b5b5090506109bb919061091c565b5090565b5b808211156109df57600081816109d69190610aaa565b506001016109c0565b5090565b8280546109ef9061160a565b90600052602060002090601f016020900481019282610a115760008555610a58565b82601f10610a2a57805160ff1916838001178555610a58565b82800160010185558215610a58579182015b82811115610a57578251825591602001919060010190610a3c565b5b509050610a65919061091c565b5090565b5b80821115610a895760008181610a809190610aea565b50600101610a6a565b5090565b5b80821115610aa6576000816000905550600101610a8e565b5090565b508054610ab69061160a565b6000825580601f10610ac85750610ae7565b601f016020900490600052602060002090810190610ae6919061091c565b5b50565b508054610af69061160a565b6000825580601f10610b085750610b27565b601f016020900490600052602060002090810190610b26919061091c565b5b50565b6000604051905090565b600080fd5b600080fd5b6000819050919050565b610b5181610b3e565b8114610b5c57600080fd5b50565b600081359050610b6e81610b48565b92915050565b600060208284031215610b8a57610b89610b34565b5b6000610b9884828501610b5f565b91505092915050565b610baa81610b3e565b82525050565b60008115159050919050565b610bc581610bb0565b82525050565b6000604082019050610be06000830185610ba1565b610bed6020830184610bbc565b9392505050565b6000602082019050610c096000830184610ba1565b92915050565b600080fd5b6000601f19601f8301169050919050565b7f4e487b7100000000000000000000000000000000000000000000000000000000600052604160045260246000fd5b610c5d82610c14565b810181811067ffffffffffffffff82111715610c7c57610c7b610c25565b5b80604052505050565b6000610c8f610b2a565b9050610c9b8282610c54565b919050565b600067ffffffffffffffff821115610cbb57610cba610c25565b5b602082029050602081019050919050565b600080fd5b600073ffffffffffffffffffffffffffffffffffffffff82169050919050565b6000610cfc82610cd1565b9050919050565b610d0c81610cf1565b8114610d1757600080fd5b50565b600081359050610d2981610d03565b92915050565b6000610d42610d3d84610ca0565b610c85565b90508083825260208201905060208402830185811115610d6557610d64610ccc565b5b835b81811015610d8e5780610d7a8882610d1a565b845260208401935050602081019050610d67565b5050509392505050565b600082601f830112610dad57610dac610c0f565b5b8135610dbd848260208601610d2f565b91505092915050565b600067ffffffffffffffff821115610de157610de0610c25565b5b602082029050602081019050919050565b6000610e05610e0084610dc6565b610c85565b90508083825260208201905060208402830185811115610e2857610e27610ccc565b5b835b81811015610e515780610e3d8882610b5f565b845260208401935050602081019050610e2a565b5050509392505050565b600082601f830112610e7057610e6f610c0f565b5b8135610e80848260208601610df2565b91505092915050565b600067ffffffffffffffff821115610ea457610ea3610c25565b5b602082029050602081019050919050565b600080fd5b600067ffffffffffffffff821115610ed557610ed4610c25565b5b610ede82610c14565b9050602081019050919050565b82818337600083830152505050565b6000610f0d610f0884610eba565b610c85565b905082815260208101848484011115610f2957610f28610eb5565b5b610f34848285610eeb565b509392505050565b600082601f830112610f5157610f50610c0f565b5b8135610f61848260208601610efa565b91505092915050565b6000610f7d610f7884610e89565b610c85565b90508083825260208201905060208402830185811115610fa057610f9f610ccc565b5b835b81811015610fe757803567ffffffffffffffff811115610fc557610fc4610c0f565b5b808601610fd28982610f3c565b85526020850194505050602081019050610fa2565b5050509392505050565b600082601f83011261100657611005610c0f565b5b8135611016848260208601610f6a565b91505092915050565b600067ffffffffffffffff82111561103a57611039610c25565b5b602082029050602081019050919050565b600067ffffffffffffffff82111561106657611065610c25565b5b61106f82610c14565b9050602081019050919050565b600061108f61108a8461104b565b610c85565b9050828152602081018484840111156110ab576110aa610eb5565b5b6110b6848285610eeb565b509392505050565b600082601f8301126110d3576110d2610c0f565b5b81356110e384826020860161107c565b91505092915050565b60006110ff6110fa8461101f565b610c85565b9050808382526020820190506020840283018581111561112257611121610ccc565b5b835b8181101561116957803567ffffffffffffffff81111561114757611146610c0f565b5b80860161115489826110be565b85526020850194505050602081019050611124565b5050509392505050565b600082601f83011261118857611187610c0f565b5b81356111988482602086016110ec565b91505092915050565b600080600080608085870312156111bb576111ba610b34565b5b600085013567ffffffffffffffff8111156111d9576111d8610b39565b5b6111e587828801610d98565b945050602085013567ffffffffffffffff81111561120657611205610b39565b5b61121287828801610e5b565b935050604085013567ffffffffffffffff81111561123357611232610b39565b5b61123f87828801610ff1565b925050606085013567ffffffffffffffff8111156112605761125f610b39565b5b61126c87828801611173565b91505092959194509250565b6000819050919050565b600061129d61129861129384610cd1565b611278565b610cd1565b9050919050565b60006112af82611282565b9050919050565b60006112c1826112a4565b9050919050565b6112d1816112b6565b82525050565b60006020820190506112ec60008301846112c8565b92915050565b600082825260208201905092915050565b7f476f7665726e6f72427261766f3a3a70726f706f73653a2070726f706f73616c60008201527f2066756e6374696f6e20696e666f726d6174696f6e206172697479206d69736d60208201527f6174636800000000000000000000000000000000000000000000000000000000604082015250565b60006113856044836112f2565b915061139082611303565b606082019050919050565b600060208201905081810360008301526113b481611378565b9050919050565b7f476f7665726e6f72427261766f3a3a70726f706f73653a206d7573742070726f60008201527f7669646520616374696f6e730000000000000000000000000000000000000000602082015250565b6000611417602c836112f2565b9150611422826113bb565b604082019050919050565b600060208201905081810360008301526114468161140a565b9050919050565b7f4e487b7100000000000000000000000000000000000000000000000000000000600052601160045260246000fd5b600061148782610b3e565b91507fffffffffffffffffffffffffffffffffffffffffffffffffffffffffffffffff8214156114ba576114b961144d565b5b600182019050919050565b7f4e487b7100000000000000000000000000000000000000000000000000000000600052603260045260246000fd5b7f416c726561647920657865637574656400000000000000000000000000000000600082015250565b600061152a6010836112f2565b9150611535826114f4565b602082019050919050565b600060208201905081810360008301526115598161151d565b9050919050565b7f4368616e67657320616c65727400000000000000000000000000000000000000600082015250565b6000611596600d836112f2565b91506115a182611560565b602082019050919050565b600060208201905081810360008301526115c581611589565b9050919050565b6115d581610cf1565b82525050565b7f4e487b7100000000000000000000000000000000000000000000000000000000600052602260045260246000fd5b6000600282049050600182168061162257607f821691505b60208210811415611636576116356115db565b5b50919050565b60008190508160005260206000209050919050565b6000815461165e8161160a565b61166881866112f2565b945060018216600081146116835760018114611695576116c8565b60ff19831686526020860193506116c8565b61169e8561163c565b60005b838110156116c0578154818901526001820191506020810190506116a1565b808801955050505b50505092915050565b600082825260208201905092915050565b60008190508160005260206000209050919050565b600081546117048161160a565b61170e81866116d1565b94506001821660008114611729576001811461173b5761176e565b60ff198316865260208601935061176e565b611744856116e2565b60005b8381101561176657815481890152600182019150602081019050611747565b808801955050505b50505092915050565b600060808201905061178c60008301876115cc565b6117996020830186610ba1565b81810360408301526117ab8185611651565b905081810360608301526117bf81846116f7565b905095945050505050565b60005b838110156117e85780820151818401526020810190506117cd565b838111156117f7576000848401525b50505050565b600061181061180b8461104b565b610c85565b90508281526020810184848401111561182c5761182b610eb5565b5b6118378482856117ca565b509392505050565b600082601f83011261185457611853610c0f565b5b81516118648482602086016117fd565b91505092915050565b60006020828403121561188357611882610b34565b5b600082015167ffffffffffffffff8111156118a1576118a0610b39565b5b6118ad8482850161183f565b9150509291505056fea26469706673582212208efc1bd46693dac31c6e8b31fe2841cb8296b90b1895d8d91d3a6ba94df932d264736f6c634300080a0033",
  "linkReferences": {},
  "deployedLinkReferences": {}
}